{
  "contractName": "Room",
  "abi": [
    {
      "constant": true,
      "inputs": [
        {
          "name": "",
          "type": "uint256"
        }
      ],
      "name": "roomData",
      "outputs": [
        {
          "name": "roomID",
          "type": "uint256"
        },
        {
          "name": "roomName",
          "type": "string"
        },
        {
          "name": "price",
          "type": "uint256"
        },
        {
          "name": "realOwner",
          "type": "address"
        },
        {
          "name": "status",
          "type": "bool"
        },
        {
          "name": "currOwner",
          "type": "address"
        },
        {
          "name": "prevOwner",
          "type": "address"
        },
        {
          "name": "startTime",
          "type": "uint256"
        },
        {
          "name": "timestamp",
          "type": "uint256"
        },
        {
          "name": "endTime",
          "type": "uint256"
        }
      ],
      "payable": false,
      "stateMutability": "view",
      "type": "function"
    },
    {
      "constant": false,
      "inputs": [
        {
          "name": "_id",
          "type": "uint256"
        },
        {
          "name": "_timestamp",
          "type": "uint256"
        }
      ],
      "name": "computeFee",
      "outputs": [
        {
          "name": "",
          "type": "uint256"
        }
      ],
      "payable": false,
      "stateMutability": "nonpayable",
      "type": "function"
    },
    {
      "constant": false,
      "inputs": [
        {
          "name": "_name",
          "type": "string"
        },
        {
          "name": "_price",
          "type": "uint256"
        }
      ],
      "name": "register",
      "outputs": [],
      "payable": false,
      "stateMutability": "nonpayable",
      "type": "function"
    },
    {
      "constant": true,
      "inputs": [],
      "name": "getIndex",
      "outputs": [
        {
          "name": "",
          "type": "uint256"
        }
      ],
      "payable": false,
      "stateMutability": "view",
      "type": "function"
    },
    {
      "constant": true,
      "inputs": [
        {
          "name": "_id",
          "type": "uint256"
        }
      ],
      "name": "getAddress",
      "outputs": [
        {
          "name": "",
          "type": "uint256"
        },
        {
          "name": "",
          "type": "string"
        },
        {
          "name": "",
          "type": "address"
        },
        {
          "name": "",
          "type": "address"
        },
        {
          "name": "",
          "type": "address"
        },
        {
          "name": "",
          "type": "bool"
        }
      ],
      "payable": false,
      "stateMutability": "view",
      "type": "function"
    },
    {
      "constant": true,
      "inputs": [
        {
          "name": "_id",
          "type": "uint256"
        }
      ],
      "name": "checkAvailable",
      "outputs": [
        {
          "name": "",
          "type": "uint256"
        }
      ],
      "payable": false,
      "stateMutability": "view",
      "type": "function"
    },
    {
      "constant": true,
      "inputs": [
        {
          "name": "_id",
          "type": "uint256"
        }
      ],
      "name": "getTime",
      "outputs": [
        {
          "name": "",
          "type": "uint256"
        },
        {
          "name": "",
          "type": "uint256"
        },
        {
          "name": "",
          "type": "uint256"
        },
        {
          "name": "",
          "type": "bool"
        }
      ],
      "payable": false,
      "stateMutability": "view",
      "type": "function"
    },
    {
      "constant": false,
      "inputs": [
        {
          "name": "_id",
          "type": "uint256"
        },
        {
          "name": "_start",
          "type": "uint256"
        },
        {
          "name": "_timestamp",
          "type": "uint256"
        },
        {
          "name": "_end",
          "type": "uint256"
        }
      ],
      "name": "rental",
      "outputs": [],
      "payable": true,
      "stateMutability": "payable",
      "type": "function"
    },
    {
      "constant": false,
      "inputs": [
        {
          "name": "_id",
          "type": "uint256"
        }
      ],
      "name": "startRent",
      "outputs": [],
      "payable": false,
      "stateMutability": "nonpayable",
      "type": "function"
    },
    {
      "constant": false,
      "inputs": [
        {
          "name": "_id",
          "type": "uint256"
        }
      ],
      "name": "restore",
      "outputs": [],
      "payable": false,
      "stateMutability": "nonpayable",
      "type": "function"
    }
  ],
  "bytecode": "0x6080604052670de0b6b3a764000060035534801561001c57600080fd5b506111778061002c6000396000f3fe6080604052600436106100915760003560e01c80639bea62ad116100595780639bea62ad1461020c578063b93f9b0a14610247578063c41e1dc0146103a6578063e193dff8146103f2578063ea87152b1461056d57610091565b80632ff284c2146100965780634359843f146100ef578063736278261461012a57806381045ead146101925780639acc4dd8146101bd575b600080fd5b3480156100a257600080fd5b506100d9600480360360408110156100b957600080fd5b81019080803590602001909291908035906020019092919050505061063f565b6040518082815260200191505060405180910390f35b3480156100fb57600080fd5b506101286004803603602081101561011257600080fd5b810190808035906020019092919050505061067e565b005b34801561013657600080fd5b506101636004803603602081101561014d57600080fd5b81019080803590602001909291905050506106af565b604051808581526020018481526020018381526020018215151515815260200194505050505060405180910390f35b34801561019e57600080fd5b506101a7610729565b6040518082815260200191505060405180910390f35b3480156101c957600080fd5b506101f6600480360360208110156101e057600080fd5b8101908080359060200190929190505050610733565b6040518082815260200191505060405180910390f35b34801561021857600080fd5b506102456004803603602081101561022f57600080fd5b8101908080359060200190929190505050610824565b005b34801561025357600080fd5b506102806004803603602081101561026a57600080fd5b810190808035906020019092919050505061094f565b60405180878152602001806020018673ffffffffffffffffffffffffffffffffffffffff1673ffffffffffffffffffffffffffffffffffffffff1681526020018573ffffffffffffffffffffffffffffffffffffffff1673ffffffffffffffffffffffffffffffffffffffff1681526020018473ffffffffffffffffffffffffffffffffffffffff1673ffffffffffffffffffffffffffffffffffffffff16815260200183151515158152602001828103825287818151815260200191508051906020019080838360005b8381101561036657808201518184015260208101905061034b565b50505050905090810190601f1680156103935780820380516001836020036101000a031916815260200191505b5097505050505050505060405180910390f35b6103f0600480360360808110156103bc57600080fd5b8101908080359060200190929190803590602001909291908035906020019092919080359060200190929190505050610afd565b005b3480156103fe57600080fd5b5061042b6004803603602081101561041557600080fd5b8101908080359060200190929190505050610c9f565b604051808b8152602001806020018a81526020018973ffffffffffffffffffffffffffffffffffffffff1673ffffffffffffffffffffffffffffffffffffffff168152602001881515151581526020018773ffffffffffffffffffffffffffffffffffffffff1673ffffffffffffffffffffffffffffffffffffffff1681526020018673ffffffffffffffffffffffffffffffffffffffff1673ffffffffffffffffffffffffffffffffffffffff16815260200185815260200184815260200183815260200182810382528b818151815260200191508051906020019080838360005b8381101561052957808201518184015260208101905061050e565b50505050905090810190601f1680156105565780820380516001836020036101000a031916815260200191505b509b50505050505050505050505060405180910390f35b34801561057957600080fd5b5061063d6004803603604081101561059057600080fd5b81019080803590602001906401000000008111156105ad57600080fd5b8201836020820111156105bf57600080fd5b803590602001918460018302840111640100000000831117156105e157600080fd5b91908080601f016020809104026020016040519081016040528093929190818152602001838380828437600081840152601f19601f82011690508083019250505050505050919291929080359060200190929190505050610df8565b005b60008161066c60035460008087815260200190815260200160002060020154610fff90919063ffffffff16565b02600281905550600254905092915050565b600160008083815260200190815260200160002060030160146101000a81548160ff02191690831515021790555050565b60008060008060008086815260200190815260200160002060060154600080878152602001908152602001600020600701546000808881526020019081526020016000206008015460008089815260200190815260200160002060030160149054906101000a900460ff1693509350935093509193509193565b6000600154905090565b60003373ffffffffffffffffffffffffffffffffffffffff1660008084815260200190815260200160002060030160009054906101000a900473ffffffffffffffffffffffffffffffffffffffff1673ffffffffffffffffffffffffffffffffffffffff1614156107a7576000905061081f565b600073ffffffffffffffffffffffffffffffffffffffff1660008084815260200190815260200160002060040160009054906101000a900473ffffffffffffffffffffffffffffffffffffffff1673ffffffffffffffffffffffffffffffffffffffff16141561081a576001905061081f565b600290505b919050565b600080600083815260200190815260200160002060040160006101000a81548173ffffffffffffffffffffffffffffffffffffffff021916908373ffffffffffffffffffffffffffffffffffffffff1602179055503360008083815260200190815260200160002060050160006101000a81548173ffffffffffffffffffffffffffffffffffffffff021916908373ffffffffffffffffffffffffffffffffffffffff160217905550600080600083815260200190815260200160002060030160146101000a81548160ff02191690831515021790555060008060008381526020019081526020016000206006018190555060008060008381526020019081526020016000206007018190555060008060008381526020019081526020016000206008018190555050565b60006060600080600080600080888152602001908152602001600020600001546000808981526020019081526020016000206001016000808a815260200190815260200160002060030160009054906101000a900473ffffffffffffffffffffffffffffffffffffffff166000808b815260200190815260200160002060040160009054906101000a900473ffffffffffffffffffffffffffffffffffffffff166000808c815260200190815260200160002060050160009054906101000a900473ffffffffffffffffffffffffffffffffffffffff166000808d815260200190815260200160002060030160149054906101000a900460ff16848054600181600116156101000203166002900480601f016020809104026020016040519081016040528092919081815260200182805460018160011615610100020316600290048015610ade5780601f10610ab357610100808354040283529160200191610ade565b820191906000526020600020905b815481529060010190602001808311610ac157829003601f168201915b5050505050945083935095509550955095509550955091939550919395565b610b07848361063f565b3414610b7b576040517f08c379a00000000000000000000000000000000000000000000000000000000081526004018080602001828103825260128152602001807f496e73756666696369656e74206d6f6e6579000000000000000000000000000081525060200191505060405180910390fd5b3360008086815260200190815260200160002060040160006101000a81548173ffffffffffffffffffffffffffffffffffffffff021916908373ffffffffffffffffffffffffffffffffffffffff16021790555082600080868152602001908152602001600020600601819055508160008086815260200190815260200160002060070181905550806000808681526020019081526020016000206008018190555060008085815260200190815260200160002060030160009054906101000a900473ffffffffffffffffffffffffffffffffffffffff1673ffffffffffffffffffffffffffffffffffffffff166108fc349081150290604051600060405180830381858888f19350505050158015610c98573d6000803e3d6000fd5b5050505050565b6000602052806000526040600020600091509050806000015490806001018054600181600116156101000203166002900480601f016020809104026020016040519081016040528092919081815260200182805460018160011615610100020316600290048015610d515780601f10610d2657610100808354040283529160200191610d51565b820191906000526020600020905b815481529060010190602001808311610d3457829003601f168201915b5050505050908060020154908060030160009054906101000a900473ffffffffffffffffffffffffffffffffffffffff16908060030160149054906101000a900460ff16908060040160009054906101000a900473ffffffffffffffffffffffffffffffffffffffff16908060050160009054906101000a900473ffffffffffffffffffffffffffffffffffffffff1690806006015490806007015490806008015490508a565b6001546000806001548152602001908152602001600020600001819055508160008060015481526020019081526020016000206001019080519060200190610e41929190611085565b508060008060015481526020019081526020016000206002018190555033600080600154815260200190815260200160002060030160006101000a81548173ffffffffffffffffffffffffffffffffffffffff021916908373ffffffffffffffffffffffffffffffffffffffff1602179055506000806000600154815260200190815260200160002060030160146101000a81548160ff0219169083151502179055506000806000600154815260200190815260200160002060040160006101000a81548173ffffffffffffffffffffffffffffffffffffffff021916908373ffffffffffffffffffffffffffffffffffffffff1602179055506000806000600154815260200190815260200160002060050160006101000a81548173ffffffffffffffffffffffffffffffffffffffff021916908373ffffffffffffffffffffffffffffffffffffffff1602179055506000806000600154815260200190815260200160002060060181905550600080600060015481526020019081526020016000206007018190555060008060006001548152602001908152602001600020600801819055506001600081548092919060010191905055505050565b600080831415611012576000905061107f565b600082840290508284828161102357fe5b041461107a576040517f08c379a000000000000000000000000000000000000000000000000000000000815260040180806020018281038252602181526020018061112b6021913960400191505060405180910390fd5b809150505b92915050565b828054600181600116156101000203166002900490600052602060002090601f016020900481019282601f106110c657805160ff19168380011785556110f4565b828001600101855582156110f4579182015b828111156110f35782518255916020019190600101906110d8565b5b5090506111019190611105565b5090565b61112791905b8082111561112357600081600090555060010161110b565b5090565b9056fe536166654d6174683a206d756c7469706c69636174696f6e206f766572666c6f77a165627a7a72305820b97495c49ccda910012dfb0ba0f492da36118da8bd1c96134e3aacf47614ba730029",
  "source": "pragma solidity ^0.5.0;\n\nimport \"./Storage.sol\";\nimport \"./SafeMath.sol\";\n\ncontract Room is Storage {\n\n  using SafeMath for uint256;\n\n  uint count;\n  uint256 tempValue;\n  uint256 oneEther = 1 ether;\n\n  function computeFee(uint _id, uint _timestamp) public returns (uint256) {\n    tempValue = roomData[_id].price.mul(oneEther) * _timestamp;\n    return tempValue;\n  }\n\n  function register(string memory _name, uint _price) public {\n    roomData[count].roomID = count;\n    roomData[count].roomName = _name;\n    roomData[count].price = _price;\n    roomData[count].realOwner = msg.sender;\n    roomData[count].status = false;\n    roomData[count].currOwner = address(0);\n    roomData[count].prevOwner = address(0);\n    roomData[count].startTime = 0;\n    roomData[count].timestamp = 0;\n    roomData[count].endTime = 0;\n    count++;\n  }\n\n  function getIndex() public view returns (uint) {\n    return count;\n  }\n\n  //only can return 7 variables\n  function getAddress(uint _id) public view returns (uint, string memory, address, address, address, bool) {\n    return (roomData[_id].roomID,\n            roomData[_id].roomName,\n            roomData[_id].realOwner,\n            roomData[_id].currOwner,\n            roomData[_id].prevOwner,\n            roomData[_id].status);\n  }\n\n  function checkAvailable(uint _id) public view returns(uint){\n    if(roomData[_id].realOwner == msg.sender){\n      return 0;\n    }else if(roomData[_id].currOwner == address(0)){\n      return 1;\n    }else{\n      return 2;\n    }\n  }\n\n  function getTime(uint _id) public view returns (uint, uint, uint, bool){\n    return (roomData[_id].startTime,\n            roomData[_id].timestamp,\n            roomData[_id].endTime,\n            roomData[_id].status);\n  }\n\n  function rental(uint _id, uint _start, uint _timestamp, uint _end) public payable{\n    require(msg.value == computeFee(_id, _timestamp), \"Insufficient money\");\n    roomData[_id].currOwner = msg.sender;\n    // roomData[_id].status = true;\n    roomData[_id].startTime = _start;\n    roomData[_id].timestamp = _timestamp;\n    roomData[_id].endTime = _end;\n    roomData[_id].realOwner.transfer(msg.value);\n  }\n\n  function startRent(uint _id) public{\n    roomData[_id].status = true;\n  }\n\n  function restore(uint _id) public{\n    roomData[_id].currOwner = address(0);\n    roomData[_id].prevOwner = msg.sender;\n    roomData[_id].status = false;\n    roomData[_id].startTime = 0;\n    roomData[_id].timestamp = 0;\n    roomData[_id].endTime = 0;\n  }\n}\n",
  "sourcePath": "C:/Users/hazdik/trans/contracts/Room.sol",
  "compiler": {
    "name": "solc",
    "version": "0.5.8+commit.23d335f2.Emscripten.clang"
  },
  "schemaVersion": "3.0.11",
  "updatedAt": "2019-08-26T11:12:04.048Z",
  "devdoc": {
    "methods": {}
  },
  "userdoc": {
    "methods": {}
  }
}