{
  "contractName": "Storage",
  "abi": [
    {
      "constant": true,
      "inputs": [
        {
          "name": "",
          "type": "uint256"
        }
      ],
      "name": "roomData",
      "outputs": [
        {
          "name": "roomID",
          "type": "uint256"
        },
        {
          "name": "roomName",
          "type": "string"
        },
        {
          "name": "price",
          "type": "uint256"
        },
        {
          "name": "realOwner",
          "type": "address"
        },
        {
          "name": "status",
          "type": "bool"
        },
        {
          "name": "currOwner",
          "type": "address"
        },
        {
          "name": "prevOwner",
          "type": "address"
        },
        {
          "name": "startTime",
          "type": "uint256"
        },
        {
          "name": "timestamp",
          "type": "uint256"
        },
        {
          "name": "endTime",
          "type": "uint256"
        }
      ],
      "payable": false,
      "stateMutability": "view",
      "type": "function"
    }
  ],
  "bytecode": "0x608060405234801561001057600080fd5b50610323806100206000396000f3fe608060405234801561001057600080fd5b506004361061002b5760003560e01c8063e193dff814610030575b600080fd5b61005c6004803603602081101561004657600080fd5b810190808035906020019092919050505061019e565b604051808b8152602001806020018a81526020018973ffffffffffffffffffffffffffffffffffffffff1673ffffffffffffffffffffffffffffffffffffffff168152602001881515151581526020018773ffffffffffffffffffffffffffffffffffffffff1673ffffffffffffffffffffffffffffffffffffffff1681526020018673ffffffffffffffffffffffffffffffffffffffff1673ffffffffffffffffffffffffffffffffffffffff16815260200185815260200184815260200183815260200182810382528b818151815260200191508051906020019080838360005b8381101561015a57808201518184015260208101905061013f565b50505050905090810190601f1680156101875780820380516001836020036101000a031916815260200191505b509b50505050505050505050505060405180910390f35b6000602052806000526040600020600091509050806000015490806001018054600181600116156101000203166002900480601f0160208091040260200160405190810160405280929190818152602001828054600181600116156101000203166002900480156102505780601f1061022557610100808354040283529160200191610250565b820191906000526020600020905b81548152906001019060200180831161023357829003601f168201915b5050505050908060020154908060030160009054906101000a900473ffffffffffffffffffffffffffffffffffffffff16908060030160149054906101000a900460ff16908060040160009054906101000a900473ffffffffffffffffffffffffffffffffffffffff16908060050160009054906101000a900473ffffffffffffffffffffffffffffffffffffffff1690806006015490806007015490806008015490508a56fea165627a7a72305820f0ee4c73af79c3d7cb3685d08ec0b6012f23397ea458a16ddffd21b26f96c2240029",
  "source": "pragma solidity ^0.5.0;\r\n\r\ncontract Storage {\r\n\r\n  struct Room{\r\n        uint roomID;\r\n        string roomName;\r\n        uint price;\r\n        address payable realOwner;\r\n        bool status; //turn on or off\r\n        address currOwner;\r\n        address prevOwner;\r\n        uint startTime;\r\n        uint timestamp;\r\n        uint endTime;\r\n    }\r\n    mapping( uint => Room) public roomData;\r\n}\r\n",
  "sourcePath": "C:\\Users\\hazdik\\trans\\contracts\\Storage.sol",
  "compiler": {
    "name": "solc",
    "version": "0.5.8+commit.23d335f2.Emscripten.clang"
  },
  "schemaVersion": "3.0.11",
  "updatedAt": "2019-08-26T11:12:04.057Z",
  "devdoc": {
    "methods": {}
  },
  "userdoc": {
    "methods": {}
  }
}